:020000040800F2
:1000000000000220A1090008F3090008010A000805
:10001000070A00080D0A0008130A00080000000083
:10002000000000000000000000000000190A0008A5
:10003000270A000800000000350A00084F0A0008DF
:10004000F1090008F1090008F1090008F1090008A8
:10005000F1090008F1090008F1090008F109000898
:10006000F1090008F1090008F1090008F109000888
:10007000F1090008F1090008F1090008F109000878
:10008000F1090008F1090008F1090008F109000868
:10009000F1090008F1090008F1090008F109000858
:1000A000F1090008F1090008F1090008F109000848
:1000B000F1090008F1090008F1090008F109000838
:1000C000F1090008F1090008F1090008F109000828
:1000D000F1090008F1090008F1090008430A0008C5
:1000E000F1090008F1090008F1090008F109000808
:1000F000F1090008F1090008F1090008F1090008F8
:10010000F1090008F1090008F1090008F1090008E7
:10011000F1090008F1090008F1090008F1090008D7
:10012000F1090008F1090008F1090008F1090008C7
:10013000F1090008F1090008F1090008F1090008B7
:10014000F1090008F1090008F1090008F1090008A7
:10015000F1090008F1090008F1090008F109000897
:10016000F1090008F1090008F1090008F109000887
:10017000F1090008F1090008F1090008F109000877
:08018000F1090008F109000873
:1001880010B5054C237833B9044B13B10448AFF3C9
:1001980000800123237010BD04000020000000002F
:1001A8009814000808B5034B1BB103490348AFF383
:1001B800008008BD00000000080000209814000816
:1001C80080B500AF00F02EFE00F008FB00F0BCFD8B
:1001D800314A314B1B6B43F48053136300F030FEFC
:1001E80000F0EEFD2D4B1B78002B49D0012BF9D1E7
:1001F8002B4B1B78442B23D0442B06DC332B27D0E6
:10020800432B0DD02B2B13D03AE0662B30D0732B19
:1002180002D0552B24D033E0204B00221A702FE057
:1002280000F00EFE1E4800F03FF800F009FE27E03F
:1002380000F006FE1A4800F075F800F001FE1FE015
:1002480000F0FEFD164800F00DF900F0F9FD17E08A
:1002580000F0F6FD124800F0C9F900F0F1FD0FE0DA
:1002680000F0EEFD0E4800F00DFA00F0E9FD07E0A1
:1002780000F0E6FD0A4800F04BFA00F0E1FD00BF8F
:100288004FF40041074801F04FF84FF480510548FA
:1002980001F059F800BFA5E700380240EE00002041
:1002A80024000020000C024080B586B000AF7860C2
:1002B8001A4B00221A7000237B617B681B78FB6055
:1002C8007B6801331B783B617B6802331B687B6169
:1002D80007F10C030221184600F0BEFD02467B69B7
:1002E8009A4215D100F0DAFD0D4B5B78FF2B03D154
:1002F800022000F05BFE05E0094B5B7802211846FE
:1003080000F0F4FD00F0E2FD792000F0BDFC02E011
:100318001F2000F0B9FC1837BD4680BDEE00002054
:100328002400002080B59EB000AF78604B4B0022BF
:100338001A7000237B6600233B667B6801331B68C9
:100348007B667B6805331B683B6607F10C0340221C
:100358000021184601F094F800237B670EE07B6FBC
:100368007A6813441B781A467B6F9B0007F1780163
:100378000B4443F82C2C7B6F01337B677B6F042B7A
:10038800EDDD07F14C030521184600F065FDB86660
:100398003A6EBB6E9A425AD100F052FD14220021E7
:1003A8002F4801F06DF8792000F06EFC00BF2B4B50
:1003B8001B78002BFBD0294B00221A707B68103366
:1003C8001B683B6600233B670EE03B6F7A6813446B
:1003D8001B781A463B6F9B0007F178010B4443F8E2
:1003E8006C2C3B6F01333B673B6F0F2BEDDD07F147
:1003F8000C031021184600F02FFDB8663A6EBB6E4C
:100408009A4220D100F04AFD002387F86F3010E0AF
:10041800786E97F86F307A6813441B78194600F0A5
:1004280049FE7B6E01337B6697F86F30013387F89E
:100438006F3097F86F300F2BEAD900F047FD79201D
:1004480000F022FC07E01F2000F01EFC03E01F2044
:1004580000F01AFC00BF7837BD4680BDEE000020D2
:100468002400002080B58EB000AF78600023FB61C7
:1004780000233B63574B00221A707B6805331B68C7
:10048800FB6100237B630EE07B6B7A6813441B7867
:100498001A467B6B9B0007F138010B4443F8302C5C
:1004A8007B6B01337B637B6B042BEDDD07F108036A
:1004B8000521184600F0D0FC3863FA693B6B9A4274
:1004C80040F082807B68D3F80130FB62FB6A1B68CE
:1004D800BB62BB6A03F00053002B71D03E4BFB613B
:1004E800792000F0D1FB00BFFB695A1EFA61002B8E
:1004F800FAD172B6394B02221A61384B08221A61B6
:10050800364B00221A61354B4FF480221A62334B66
:1005180000221A62314A314B1B6843F00103136011
:1005280000BF2E4B1B6803F00203022BF9D12B4AA4
:100538002A4B1B6843F080031360284B00229A6003
:1005480000BF264B9B6803F00C03002BF9D1234A0C
:10055800224B1B6823F45023136000BF1F4B1B68FA
:1005680003F40033002BF9D11C4A1C4B1B6823F001
:100578008073136000BF194B1B6803F00073002BD6
:10058800F9D1164B164A5A60164B00221A60154BC1
:1005980000225A60134B00229A60BFF35F8F124A01
:1005A800FB6A9360BFF34F8FFB6A04331B687B625F
:1005B800BB6A3B623B6A83F308887B6A984706E01C
:1005C8001F2000F061FB02E01F2000F05DFB3837C0
:1005D800BD4680BDEE000020FFFF0F00003802403E
:1005E8001030000410E000E000ED00E080B586B0B7
:1005F80000AF7860204B00221A7000237B617B6873
:100608001B78FB607B6801331B783B617B68023396
:100618001B687B6107F10C030221184600F01CFCE3
:1006280002467B699A4221D100F038FC00F076FD41
:100638001249124B5B697A6801321278104601221E
:1006480082401204D24313404B610C4A0B4B5B6946
:1006580043F0020353610A4B012BFCD000F078FDF4
:1006680000F034FC792000F00FFB02E01F2000F0BE
:100678000BFB1837BD4680BDEE000020003C024051
:10068800E511000880B586B000AF78601E4B0022E7
:100698001A7000237B617B681B78FB607B680133E1
:1006A8001B783B617B6802331B687B6107F10C0395
:1006B8000221184600F0D0FB02467B699A421DD100
:1006C80000F0ECFB00F02AFD1049104B5B697A68DA
:1006D80001321278104601228240120413434B6102
:1006E8000A4A0A4B5B6943F00203536100F030FD8C
:1006F80000F0ECFB792000F0C7FA02E01F2000F0C0
:10070800C3FA1837BD4680BDEE000020003C024009
:1007180080B58CB000AF786000233B620023BB62D9
:100728002B4B00221A707B6805331B683B62002341
:10073800FB620EE0FB6A7A6813441B781A46FB6A70
:100748009B0007F130010B4443F8242CFB6A01336A
:10075800FB62FB6A042BEDDD07F10C03052118464B
:1007680000F07AFBB8623A6ABB6A9A4228D17B6881
:10077800D3F801307B627B6A03F00063002B1BD047
:10078800144B3B62792000F07FFA00BF3B6A5A1E87
:100798003A62002BFAD100F081FB0221102000F010
:1007A800A5FB00F093FB00F079FB796A0A4800F09A
:1007B8004DFC00F08BFB06E01F2000F065FA02E01C
:1007C8001F2000F061FA00BF3037BD4680BD00BF72
:1007D800EE000020FFFF0F000080000880B500AF8A
:1007E8001D4A1D4B1B6B43F0020313631B4A1B4B33
:1007F8001B6823F470031360184A184B1B6843F4F2
:1008080020031360154A154B5B6823F4806353601B
:10081800124A124B9B6823F4401393600F4A0F4B04
:100828009B6843F4801393600C4A0C4BDB6823F4F9
:100838007003D360094A094BDB6843F4A003D36013
:1008480007220A21054800F08DFD07220B210348E5
:1008580000F088FD00BF80BD00380240000402405F
:1008680080B586B000AF62B60121082000F0C4FD53
:100878004FF450433B6001233B710023BB710023BD
:10088800FB7100237B713B4619463C4800F0BEFCD7
:100898003B4B1B687B617B691B683B617B69B3F1E0
:1008A800FF3F04D0374B1B78DBB2012B04D1354B0B
:1008B8001B78FFF785FC5BE072B6334B08221A61A0
:1008C800314B00221A61304A2F4B1B6843F0010359
:1008D800136000BF2C4B1B6803F00203022BF9D1F5
:1008E800294A294B1B6843F080031360264B0022DA
:1008F8009A6000BF244B9B6803F00C03002BF9D1CE
:10090800214A214B1B6823F45023136000BF1E4B60
:100918001B6803F40033002BF9D11B4A1A4B1B68E0
:1009280023F08073136000BF174B1B6803F000733C
:10093800002BF9D1144B154A5A60154B00221A6046
:10094800134B00225A60124B00229A60BFF35F8F4C
:10095800104A7B699360BFF34F8F7B6904331B6830
:10096800FB603B69BB60BB6883F30888FB689847FA
:10097800002318461837BD4680BD00BF000C024052
:1009880000800008000000200038024010300004F9
:1009980010E000E000ED00E0DFF834D0002103E0D3
:1009A8000C4B5B58435004310B480C4B42189A428D
:1009B800F6D30B4A02E0002342F8043B094B9A4263
:1009C800F9D300F047F800F037FDFFF749FF70470B
:1009D80000000220B81400080400002004000020D1
:1009E80004000020F0000020FEE780B400AF00BF44
:1009F800BD465DF8047B704780B400AFFEE780B465
:100A080000AFFEE780B400AFFEE780B400AFFEE7BA
:100A180080B400AF00BFBD465DF8047B704780B46A
:100A280000AF00BFBD465DF8047B704780B400AFDF
:100A380000BFBD465DF8047B704780B500AF00F08D
:100A48003DF900BF80BD80B400AF00BFBD465DF872
:100A5800047B704780B500AF164A164BD3F8883030
:100A680043F47003C2F88830134A134B1B6843F0F1
:100A780001031360104B00229A600F4A0E4B1B684B
:100A880023F0847323F4803313600B4B0B4A5A60B2
:100A9800094A094B1B6823F480231360064B002284
:100AA800DA6000F00DF8034B4FF000629A6000BF67
:100AB80080BD00BF00ED00E0003802401030002487
:100AC80080B483B000AF00237B6000233B60364ACC
:100AD800354B1B6843F480331360334B1B6803F4B6
:100AE80000333B607B6801337B603B68002B03D19C
:100AF8007B68B3F5A06FF0D12B4B1B6803F4003370
:100B0800002B02D001233B6001E000233B603B68DF
:100B1800012B42D1244A244B1B6C43F080531364AD
:100B2800224A224B1B6843F4404313601E4A1E4B63
:100B38009B6893601C4A1C4B9B6843F4004393607A
:100B4800194A194B9B6843F4A0539360164B184AF3
:100B58005A60154A144B1B6843F08073136000BF3A
:100B6800114B1B6803F00073002BF9D0114B40F2B6
:100B780005721A600C4A0C4B9B6823F003039360C0
:100B8800094A094B9B6843F00203936000BF064B78
:100B98009B6803F00C03082BF9D100BF0C37BD4646
:100BA8005DF8047B704700BF0038024000700040C9
:100BB80008544007003C024080B485B000AF78601C
:100BC8007B6803F00703FB600C4BDB68BB60BA680B
:100BD8004FF6FF031340BB60FB681A02BB68134360
:100BE80043F0BF6343F40033BB60044ABB68D3607F
:100BF80000BF1437BD465DF8047B704700ED00E088
:100C080080B483B000AF0346FB71094997F90730F8
:100C18005B09FA7902F01F02012000FA02F241F89A
:100C2800232000BF0C37BD465DF8047B704700BF2A
:100C380000E100E080B483B000AF03463960FB7187
:100C480097F90730002B0BDA0D49FB7903F00F03F6
:100C5800043B3A68D2B21201D2B20B441A7609E0C8
:100C6800084997F907303A68D2B21201D2B20B4458
:100C780083F8002300BF0C37BD465DF8047B70473E
:100C880000ED00E000E100E080B483B000AF03466F
:100C9800FB7100BF084B1B889BB203F08003002B3D
:100CA800F8D0054BFA7992B29A8000BF0C37BD464E
:100CB8005DF8047B704700BF0048004080B500AF76
:100CC8001B4B1B889BB203F01003102B18D1184B39
:100CD8009B88184B1B68184A0021D154144B9B88D9
:100CE8009BB21A46134B1A60124B00221A604FF43B
:100CF8008051124800F018FB114B01221A7015E0C0
:100D08000B4B1B889BB203F02003202B0ED1084B02
:100D18009B889BB2DAB20B4B1A70064B1B685A1CA5
:100D280004490A60074A1178034AD15480BD00BFBC
:100D3800004800402000002024000020000C024051
:100D4800EE000020ED00002080B400AF1A4B4FF4F5
:100D580080221A64194A194B9B899BB2C3F30E036C
:100D68009BB29381154A154B9B8A9BB243F400634F
:100D78009BB29382114A114B9B899BB223F48053F7
:100D88009BB293810D4A0D4B1B8A9BB223F44053AF
:100D98009BB21382094A094B9B899BB223F4806357
:100DA8009BB29381054B40F246421A8100BFBD4673
:100DB8005DF8047B704700BF0038024000480040DF
:100DC80080B400AF164A164B9B899BB243F400537C
:100DD8009BB29381124A124B9B899BB243F0080342
:100DE8009BB293810E4A0E4B9B899BB243F004033E
:100DF8009BB293810A4A0A4B9B899BB243F010032A
:100E08009BB29381064A064B9B899BB243F0200311
:100E18009BB2938100BFBD465DF8047B704700BF5D
:100E28000048004080B500AF0320FFF7C5FE012150
:100E38002720FFF7FFFE2720FFF7E2FE00BF80BD57
:100E480080B400AF034B01229A6000BFBD465DF835
:100E5800047B70470030024080B485B000AF7860F2
:100E680039600023FB600023FB6009E00A49FB6846
:100E78009B007A6813441B680B60FB680133FB60B6
:100E8800FA683B689A42F1D3034B1B68184614373B
:100E9800BD465DF8047B70470030024080B400AF67
:100EA800074B1B69002B05DA054B064A5A60044BB1
:100EB800054A5A6000BFBD465DF8047B704700BF15
:100EC800003C024023016745AB89EFCD80B400AFF9
:100ED800054A054B1B6943F00043136100BFBD463B
:100EE8005DF8047B704700BF003C024080B584B0C9
:100EF80000AF78600B46FB700023FB600823FB7291
:100F0800FB78002B02D10023FB6010E0FB78012B5B
:100F180003D14FF48073FB6009E0FB78022B03D107
:100F28004FF40073FB6002E04FF44073FB6000F085
:100F380055F90346FB72FB7A082B2FD11A4A1A4B34
:100F48001B6923F4407313611749174B1A69FB682F
:100F580013430B61144A144B1B6923F0F803136104
:100F68001149114B1A697B68134343F002030B6163
:100F78000D4A0D4B1B6943F48033136100F02EF9C1
:100F88000346FB72084A084B1B6923F002031361EE
:100F9800054A054B1B6923F0F8031361FB7A1846D1
:100FA8001037BD4680BD00BF003C024080B584B00C
:100FB80000AF0346FB710023FB600823FB7200F0BF
:100FC8000DF90346FB72FB79002B02D10023FB606D
:100FD80010E0FB79012B03D14FF48073FB6009E02B
:100FE800FB79022B03D14FF40073FB6002E04FF44E
:100FF8004073FB60FB7A082B21D1134A124B1B6903
:1010080023F44073136110490F4B1A69FB681343AB
:101018000B610D4A0C4B1B6943F0040313610A4A28
:10102800094B1B6943F48033136100F0D7F803467A
:10103800FB72054A044B1B6923F004031361FB7A16
:1010480018461037BD4680BD003C024080B584B0CC
:1010580000AF786039600823FB7300F0BFF80346DF
:10106800FB73FB7B082B1ED1114A114B1B6923F420
:10107800407313610E4A0E4B1B6943F400731361EE
:101088000B4A0B4B1B6943F0010313617B683A68F9
:101098001A6000F0A3F80346FB73054A044B1B696A
:1010A80023F001031361FB7B18461037BD4680BD52
:1010B800003C024080B584B000AF78600B46FB70FE
:1010C8000823FB7300F08AF80346FB73FB7B082BAD
:1010D8001CD1114A104B1B6923F4407313610E4A4B
:1010E8000D4B1B6913610C4A0B4B1B6943F0010341
:1010F80013617B68FA781A7000F070F80346FB7386
:10110800054A054B1B6923F001031361FB7B184655
:101118001037BD4680BD00BF003C024080B400AF20
:10112800084B5B6903F00103002B05D0054B064A09
:101138009A60044B054A9A6000BFBD465DF8047B7F
:10114800704700BF003C02403B2A19087F6E5D4C87
:1011580080B400AF054A054B5B6943F00103536156
:1011680000BFBD465DF8047B704700BF003C0240ED
:1011780080B483B000AF0823FB71174BDB6803F41E
:101188008033B3F5803F02D10123FB711CE0124B81
:10119800DB6803F01003002B02D00523FB7113E07A
:1011A8000D4BDB6803F0EF03002B02D00623FB7125
:1011B8000AE0094BDB6803F00203002B02D0072387
:1011C800FB7101E00823FB71FB7918460C37BD461B
:1011D8005DF8047B704700BF003C024080B582B0D8
:1011E80000AF0823FB71FFF7C3FF0346FB7103E061
:1011F800FFF7BEFF0346FB71FB79DBB2012BF7D08B
:10120800FB79DBB218460837BD4680BD80B487B08D
:1012180000AF7860396000237B6100233B610023C5
:10122800FB6000237B6176E001227B6902FA03F30D
:101238003B613B681A683B691340FB60FA683B698D
:101248009A4265D17B681A687B695B00032101FAC1
:1012580003F3DB431A407B681A607B681A683B68B3
:101268001B7919467B695B0001FA03F31A437B6813
:101278001A603B681B79012B03D03B681B79022B52
:101288002ED17B689A687B695B00032101FA03F31E
:10129800DB431A407B689A607B689A683B685B7995
:1012A80019467B695B0001FA03F31A437B689A606D
:1012B8007B685A687B699BB2194601238B40DB43E4
:1012C8001A407B685A607B685B683A689279114675
:1012D8007A6992B201FA02F292B21A437B685A60B2
:1012E8007B68DA687B699BB25B00032101FA03F330
:1012F800DB431A407B68DA607B68DA683B68DB7935
:1013080019467B695B0001FA03F31A437B68DA60CC
:101318007B6901337B617B690F2B85D900BF1C3743
:10132800BD465DF8047B704780B483B000AF786039
:101338000B467B807B687A881A8300BF0C37BD46D2
:101348005DF8047B704780B483B000AF78600B46CB
:101358007B807B687A885A8300BF0C37BD465DF86E
:10136800047B704780B485B000AF78600B467B8003
:1013780013467B700023FB600023BB607A787B8870
:1013880003F007039B0002FA03F3FB607B88DB088A
:101398009BB218467B88DB089BB21A467B680832EA
:1013A80053F822207B8803F007039B000F2101FAE2
:1013B80003F3DB4302EA03017B6800F1080243F808
:1013C80022107B88DB089BB21A467B68083253F8E8
:1013D8002220FB681343BB607B88DB089BB21A465C
:1013E8007B680832B96843F8221000BF1437BD463D
:1013F8005DF8047B7047000080B483B000AF78606C
:101408000B46FB70FB78002B06D00A49094B1A6B78
:101418007B6813430B6306E00649064B1A6B7B682F
:10142800DB4313400B6300BF0C37BD465DF8047BFC
:10143800704700BF0038024070B50D4E0D4CA41B1C
:10144800A4100025A54209D10B4E0C4C00F020F841
:10145800A41BA4100025A54205D170BD56F825305F
:1014680098470135EEE756F8253098470135F2E7F9
:10147800B0140008B0140008B0140008B414000830
:1014880002440346934200D1704703F8011BF9E771
:10149800F8B500BFF8BC08BC9E467047F8B500BF59
:0814A800F8BC08BC9E46704729
:0414B000AD01000882
:0414B40089010008A2
:020000042000DA
:0100000000FF
:04000005080009A145
:00000001FF
